{
  "contractName": "KryptoBird",
  "abi": [
    {
      "inputs": [],
      "stateMutability": "nonpayable",
      "type": "constructor"
    },
    {
      "anonymous": false,
      "inputs": [
        {
          "indexed": true,
          "internalType": "address",
          "name": "owner",
          "type": "address"
        },
        {
          "indexed": true,
          "internalType": "address",
          "name": "approved",
          "type": "address"
        },
        {
          "indexed": true,
          "internalType": "uint256",
          "name": "tokenId",
          "type": "uint256"
        }
      ],
      "name": "Approval",
      "type": "event"
    },
    {
      "anonymous": false,
      "inputs": [
        {
          "indexed": true,
          "internalType": "address",
          "name": "from",
          "type": "address"
        },
        {
          "indexed": true,
          "internalType": "address",
          "name": "to",
          "type": "address"
        },
        {
          "indexed": true,
          "internalType": "uint256",
          "name": "tokenId",
          "type": "uint256"
        }
      ],
      "name": "Transfer",
      "type": "event"
    },
    {
      "inputs": [
        {
          "internalType": "uint256",
          "name": "",
          "type": "uint256"
        }
      ],
      "name": "KryptoBirdz",
      "outputs": [
        {
          "internalType": "string",
          "name": "",
          "type": "string"
        }
      ],
      "stateMutability": "view",
      "type": "function",
      "constant": true
    },
    {
      "inputs": [
        {
          "internalType": "address",
          "name": "_to",
          "type": "address"
        },
        {
          "internalType": "uint256",
          "name": "tokenId",
          "type": "uint256"
        }
      ],
      "name": "approve",
      "outputs": [],
      "stateMutability": "nonpayable",
      "type": "function"
    },
    {
      "inputs": [
        {
          "internalType": "address",
          "name": "_owner",
          "type": "address"
        }
      ],
      "name": "balanceOf",
      "outputs": [
        {
          "internalType": "uint256",
          "name": "",
          "type": "uint256"
        }
      ],
      "stateMutability": "view",
      "type": "function",
      "constant": true
    },
    {
      "inputs": [],
      "name": "name",
      "outputs": [
        {
          "internalType": "string",
          "name": "",
          "type": "string"
        }
      ],
      "stateMutability": "view",
      "type": "function",
      "constant": true
    },
    {
      "inputs": [
        {
          "internalType": "uint256",
          "name": "_tokenId",
          "type": "uint256"
        }
      ],
      "name": "ownerOf",
      "outputs": [
        {
          "internalType": "address",
          "name": "",
          "type": "address"
        }
      ],
      "stateMutability": "view",
      "type": "function",
      "constant": true
    },
    {
      "inputs": [
        {
          "internalType": "bytes4",
          "name": "interfaceID",
          "type": "bytes4"
        }
      ],
      "name": "supportsInterface",
      "outputs": [
        {
          "internalType": "bool",
          "name": "",
          "type": "bool"
        }
      ],
      "stateMutability": "view",
      "type": "function",
      "constant": true
    },
    {
      "inputs": [],
      "name": "symbol",
      "outputs": [
        {
          "internalType": "string",
          "name": "",
          "type": "string"
        }
      ],
      "stateMutability": "view",
      "type": "function",
      "constant": true
    },
    {
      "inputs": [
        {
          "internalType": "uint256",
          "name": "index",
          "type": "uint256"
        }
      ],
      "name": "tokenByIndex",
      "outputs": [
        {
          "internalType": "uint256",
          "name": "",
          "type": "uint256"
        }
      ],
      "stateMutability": "view",
      "type": "function",
      "constant": true
    },
    {
      "inputs": [
        {
          "internalType": "address",
          "name": "owner",
          "type": "address"
        },
        {
          "internalType": "uint256",
          "name": "index",
          "type": "uint256"
        }
      ],
      "name": "tokenOfOwnerByIndex",
      "outputs": [
        {
          "internalType": "uint256",
          "name": "",
          "type": "uint256"
        }
      ],
      "stateMutability": "view",
      "type": "function",
      "constant": true
    },
    {
      "inputs": [],
      "name": "totalSupply",
      "outputs": [
        {
          "internalType": "uint256",
          "name": "",
          "type": "uint256"
        }
      ],
      "stateMutability": "view",
      "type": "function",
      "constant": true
    },
    {
      "inputs": [
        {
          "internalType": "address",
          "name": "_from",
          "type": "address"
        },
        {
          "internalType": "address",
          "name": "_to",
          "type": "address"
        },
        {
          "internalType": "uint256",
          "name": "_tokenId",
          "type": "uint256"
        }
      ],
      "name": "transferFrom",
      "outputs": [],
      "stateMutability": "nonpayable",
      "type": "function"
    },
    {
      "inputs": [
        {
          "internalType": "string",
          "name": "_kryptoBird",
          "type": "string"
        }
      ],
      "name": "mint",
      "outputs": [],
      "stateMutability": "nonpayable",
      "type": "function"
    }
  ],
  "bytecode": "0x60806040523480156200001157600080fd5b506040518060400160405280600a81526020017f4b727970746f42697264000000000000000000000000000000000000000000008152506040518060400160405280600681526020017f4b424952445a00000000000000000000000000000000000000000000000000008152508181620000b17f01ffc9a7a5cef8baa21ed3c5c0d7e23accb804b619e9333b597f47a0d84076e26200022a60201b60201c565b8160019080519060200190620000c992919062000301565b508060029080519060200190620000e292919062000301565b50620001367f13b182f4c0e5b2efbac0efe6cf6d756c8b89f4b79c5707a043ed9ea740574ee97f7feaf19471f34a12a7eaf32d5f3090aa2260ea8624dc8a138e74e0bf0f623076186200022a60201b60201c565b5050620001ad7f22c82707ba960a14c7592ffb6b8cfaa073fed0048a84cc7fa41f6b5bd8e7f2e47f3a6eb71757dfc6e784c1459d26270140c2c147d95ca985c80026fc5301c3eca17f8a7e378434598edc36d108689a030cbc9d7d465de4f74c71bae1028eed6a881b18186200022a60201b60201c565b620002227f8230223f691b981717299fae9549350a0d894555723531f02108b1f522c1a7977f6dc14da76351d46a1bff80f403841f26aeb5b6024062dc82afb1a9662b1a28577fc53637662700e6c65104059db8bba34439e0c32483ab7c34e3ccae52c739549518186200022a60201b60201c565b505062000498565b63ffffffff60e01b817bffffffffffffffffffffffffffffffffffffffffffffffffffffffff19160362000295576040517f08c379a00000000000000000000000000000000000000000000000000000000081526004016200028c9062000412565b60405180910390fd5b6001600080837bffffffffffffffffffffffffffffffffffffffffffffffffffffffff19167bffffffffffffffffffffffffffffffffffffffffffffffffffffffff1916815260200190815260200160002060006101000a81548160ff02191690831515021790555050565b8280546200030f9062000463565b90600052602060002090601f0160209004810192826200033357600085556200037f565b82601f106200034e57805160ff19168380011785556200037f565b828001600101855582156200037f579182015b828111156200037e57825182559160200191906001019062000361565b5b5090506200038e919062000392565b5090565b5b80821115620003ad57600081600090555060010162000393565b5090565b600082825260208201905092915050565b7f496e76616c696420696e74657266616365207265717565737400000000000000600082015250565b6000620003fa601983620003b1565b91506200040782620003c2565b602082019050919050565b600060208201905081810360008301526200042d81620003eb565b9050919050565b7f4e487b7100000000000000000000000000000000000000000000000000000000600052602260045260246000fd5b600060028204905060018216806200047c57607f821691505b60208210810362000492576200049162000434565b5b50919050565b611f0a80620004a86000396000f3fe608060405234801561001057600080fd5b50600436106100b45760003560e01c80634f6ccce7116100715780634f6ccce71461018d5780636352211e146101bd57806370a08231146101ed57806395d89b411461021d578063a3a1ff581461023b578063d85d3d271461026b576100b4565b806301ffc9a7146100b957806306fdde03146100e9578063095ea7b31461010757806318160ddd1461012357806323b872dd146101415780632f745c591461015d575b600080fd5b6100d360048036038101906100ce9190611242565b610287565b6040516100e0919061128a565b60405180910390f35b6100f16102ee565b6040516100fe919061133e565b60405180910390f35b610121600480360381019061011c91906113f4565b610380565b005b61012b61051b565b6040516101389190611443565b60405180910390f35b61015b6004803603810190610156919061145e565b610528565b005b610177600480360381019061017291906113f4565b610581565b6040516101849190611443565b60405180910390f35b6101a760048036038101906101a291906114b1565b610631565b6040516101b49190611443565b60405180910390f35b6101d760048036038101906101d291906114b1565b6106a2565b6040516101e491906114ed565b60405180910390f35b61020760048036038101906102029190611508565b610780565b6040516102149190611443565b60405180910390f35b61022561083e565b604051610232919061133e565b60405180910390f35b610255600480360381019061025091906114b1565b6108d0565b604051610262919061133e565b60405180910390f35b6102856004803603810190610280919061166a565b61097c565b005b6000806000837bffffffffffffffffffffffffffffffffffffffffffffffffffffffff19167bffffffffffffffffffffffffffffffffffffffffffffffffffffffff1916815260200190815260200160002060009054906101000a900460ff169050919050565b6060600180546102fd906116e2565b80601f0160208091040260200160405190810160405280929190818152602001828054610329906116e2565b80156103765780601f1061034b57610100808354040283529160200191610376565b820191906000526020600020905b81548152906001019060200180831161035957829003601f168201915b5050505050905090565b600061038b826106a2565b90508273ffffffffffffffffffffffffffffffffffffffff168173ffffffffffffffffffffffffffffffffffffffff16036103fb576040517f08c379a00000000000000000000000000000000000000000000000000000000081526004016103f290611785565b60405180910390fd5b8073ffffffffffffffffffffffffffffffffffffffff163373ffffffffffffffffffffffffffffffffffffffff1614610469576040517f08c379a0000000000000000000000000000000000000000000000000000000008152600401610460906117f1565b60405180910390fd5b826005600084815260200190815260200160002060006101000a81548173ffffffffffffffffffffffffffffffffffffffff021916908373ffffffffffffffffffffffffffffffffffffffff160217905550818373ffffffffffffffffffffffffffffffffffffffff168273ffffffffffffffffffffffffffffffffffffffff167f8c5be1e5ebec7d5bd14f71427d1e84f3dd0314c0f7b2291e5b200ac8c7c3b92560405160405180910390a4505050565b6000600680549050905090565b6105323382610a7f565b610571576040517f08c379a000000000000000000000000000000000000000000000000000000000815260040161056890611883565b60405180910390fd5b61057c838383610b0e565b505050565b600061058c83610780565b82106105cd576040517f08c379a00000000000000000000000000000000000000000000000000000000081526004016105c4906118ef565b60405180910390fd5b600860008473ffffffffffffffffffffffffffffffffffffffff1673ffffffffffffffffffffffffffffffffffffffff168152602001908152602001600020828154811061061e5761061d61190f565b5b9060005260206000200154905092915050565b600061063b61051b565b821061067c576040517f08c379a00000000000000000000000000000000000000000000000000000000081526004016106739061198a565b60405180910390fd5b600682815481106106905761068f61190f565b5b90600052602060002001549050919050565b60008073ffffffffffffffffffffffffffffffffffffffff166003600084815260200190815260200160002060009054906101000a900473ffffffffffffffffffffffffffffffffffffffff1673ffffffffffffffffffffffffffffffffffffffff1603610745576040517f08c379a000000000000000000000000000000000000000000000000000000000815260040161073c90611a1c565b60405180910390fd5b6003600083815260200190815260200160002060009054906101000a900473ffffffffffffffffffffffffffffffffffffffff169050919050565b60008073ffffffffffffffffffffffffffffffffffffffff168273ffffffffffffffffffffffffffffffffffffffff16036107f0576040517f08c379a00000000000000000000000000000000000000000000000000000000081526004016107e790611a1c565b60405180910390fd5b610837600460008473ffffffffffffffffffffffffffffffffffffffff1673ffffffffffffffffffffffffffffffffffffffff168152602001908152602001600020610d33565b9050919050565b60606002805461084d906116e2565b80601f0160208091040260200160405190810160405280929190818152602001828054610879906116e2565b80156108c65780601f1061089b576101008083540402835291602001916108c6565b820191906000526020600020905b8154815290600101906020018083116108a957829003601f168201915b5050505050905090565b600b81815481106108e057600080fd5b9060005260206000200160009150905080546108fb906116e2565b80601f0160208091040260200160405190810160405280929190818152602001828054610927906116e2565b80156109745780601f1061094957610100808354040283529160200191610974565b820191906000526020600020905b81548152906001019060200180831161095757829003601f168201915b505050505081565b600a8160405161098c9190611a78565b908152602001604051809103902060009054906101000a900460ff16156109e8576040517f08c379a00000000000000000000000000000000000000000000000000000000081526004016109df90611b01565b60405180910390fd5b600b81908060018154018082558091505060019003906000526020600020016000909190919091509080519060200190610a23929190611133565b5060006001600b80549050610a389190611b50565b9050610a443382610d41565b6001600a83604051610a569190611a78565b908152602001604051809103902060006101000a81548160ff0219169083151502179055505050565b6000610a8a82610d62565b610ac9576040517f08c379a0000000000000000000000000000000000000000000000000000000008152600401610ac090611bd0565b60405180910390fd5b6000610ad4836106a2565b90508073ffffffffffffffffffffffffffffffffffffffff168473ffffffffffffffffffffffffffffffffffffffff161491505092915050565b600073ffffffffffffffffffffffffffffffffffffffff168273ffffffffffffffffffffffffffffffffffffffff1603610b7d576040517f08c379a0000000000000000000000000000000000000000000000000000000008152600401610b7490611c62565b60405180910390fd5b8273ffffffffffffffffffffffffffffffffffffffff16610b9d826106a2565b73ffffffffffffffffffffffffffffffffffffffff1614610bf3576040517f08c379a0000000000000000000000000000000000000000000000000000000008152600401610bea90611cf4565b60405180910390fd5b610c3a600460008573ffffffffffffffffffffffffffffffffffffffff1673ffffffffffffffffffffffffffffffffffffffff168152602001908152602001600020610dd4565b610c81600460008473ffffffffffffffffffffffffffffffffffffffff1673ffffffffffffffffffffffffffffffffffffffff168152602001908152602001600020610df7565b816003600083815260200190815260200160002060006101000a81548173ffffffffffffffffffffffffffffffffffffffff021916908373ffffffffffffffffffffffffffffffffffffffff160217905550808273ffffffffffffffffffffffffffffffffffffffff168473ffffffffffffffffffffffffffffffffffffffff167fddf252ad1be2c89b69c2b068fc378daa952ba7f163c4a11628f55a4df523b3ef60405160405180910390a4505050565b600081600001549050919050565b610d4b8282610e16565b610d5481610fc7565b610d5e8282611010565b5050565b6000806003600084815260200190815260200160002060009054906101000a900473ffffffffffffffffffffffffffffffffffffffff169050600073ffffffffffffffffffffffffffffffffffffffff168173ffffffffffffffffffffffffffffffffffffffff161415915050919050565b610dec600182600001546110d490919063ffffffff16565b816000018190555050565b6001816000016000828254610e0c9190611d14565b9250508190555050565b600073ffffffffffffffffffffffffffffffffffffffff168273ffffffffffffffffffffffffffffffffffffffff1603610e85576040517f08c379a0000000000000000000000000000000000000000000000000000000008152600401610e7c90611ddc565b60405180910390fd5b610e8e81610d62565b15610ece576040517f08c379a0000000000000000000000000000000000000000000000000000000008152600401610ec590611e48565b60405180910390fd5b816003600083815260200190815260200160002060006101000a81548173ffffffffffffffffffffffffffffffffffffffff021916908373ffffffffffffffffffffffffffffffffffffffff160217905550610f67600460008473ffffffffffffffffffffffffffffffffffffffff1673ffffffffffffffffffffffffffffffffffffffff168152602001908152602001600020610df7565b808273ffffffffffffffffffffffffffffffffffffffff16600073ffffffffffffffffffffffffffffffffffffffff167fddf252ad1be2c89b69c2b068fc378daa952ba7f163c4a11628f55a4df523b3ef60405160405180910390a45050565b6006805490506007600083815260200190815260200160002081905550600681908060018154018082558091505060019003906000526020600020016000909190919091505550565b600860008373ffffffffffffffffffffffffffffffffffffffff1673ffffffffffffffffffffffffffffffffffffffff168152602001908152602001600020805490506009600083815260200190815260200160002081905550600860008373ffffffffffffffffffffffffffffffffffffffff1673ffffffffffffffffffffffffffffffffffffffff1681526020019081526020016000208190806001815401808255809150506001900390600052602060002001600090919091909150555050565b600082821115611119576040517f08c379a000000000000000000000000000000000000000000000000000000000815260040161111090611eb4565b60405180910390fd5b600082846111279190611b50565b90508091505092915050565b82805461113f906116e2565b90600052602060002090601f01602090048101928261116157600085556111a8565b82601f1061117a57805160ff19168380011785556111a8565b828001600101855582156111a8579182015b828111156111a757825182559160200191906001019061118c565b5b5090506111b591906111b9565b5090565b5b808211156111d25760008160009055506001016111ba565b5090565b6000604051905090565b600080fd5b600080fd5b60007fffffffff0000000000000000000000000000000000000000000000000000000082169050919050565b61121f816111ea565b811461122a57600080fd5b50565b60008135905061123c81611216565b92915050565b600060208284031215611258576112576111e0565b5b60006112668482850161122d565b91505092915050565b60008115159050919050565b6112848161126f565b82525050565b600060208201905061129f600083018461127b565b92915050565b600081519050919050565b600082825260208201905092915050565b60005b838110156112df5780820151818401526020810190506112c4565b838111156112ee576000848401525b50505050565b6000601f19601f8301169050919050565b6000611310826112a5565b61131a81856112b0565b935061132a8185602086016112c1565b611333816112f4565b840191505092915050565b600060208201905081810360008301526113588184611305565b905092915050565b600073ffffffffffffffffffffffffffffffffffffffff82169050919050565b600061138b82611360565b9050919050565b61139b81611380565b81146113a657600080fd5b50565b6000813590506113b881611392565b92915050565b6000819050919050565b6113d1816113be565b81146113dc57600080fd5b50565b6000813590506113ee816113c8565b92915050565b6000806040838503121561140b5761140a6111e0565b5b6000611419858286016113a9565b925050602061142a858286016113df565b9150509250929050565b61143d816113be565b82525050565b60006020820190506114586000830184611434565b92915050565b600080600060608486031215611477576114766111e0565b5b6000611485868287016113a9565b9350506020611496868287016113a9565b92505060406114a7868287016113df565b9150509250925092565b6000602082840312156114c7576114c66111e0565b5b60006114d5848285016113df565b91505092915050565b6114e781611380565b82525050565b600060208201905061150260008301846114de565b92915050565b60006020828403121561151e5761151d6111e0565b5b600061152c848285016113a9565b91505092915050565b600080fd5b600080fd5b7f4e487b7100000000000000000000000000000000000000000000000000000000600052604160045260246000fd5b611577826112f4565b810181811067ffffffffffffffff821117156115965761159561153f565b5b80604052505050565b60006115a96111d6565b90506115b5828261156e565b919050565b600067ffffffffffffffff8211156115d5576115d461153f565b5b6115de826112f4565b9050602081019050919050565b82818337600083830152505050565b600061160d611608846115ba565b61159f565b9050828152602081018484840111156116295761162861153a565b5b6116348482856115eb565b509392505050565b600082601f83011261165157611650611535565b5b81356116618482602086016115fa565b91505092915050565b6000602082840312156116805761167f6111e0565b5b600082013567ffffffffffffffff81111561169e5761169d6111e5565b5b6116aa8482850161163c565b91505092915050565b7f4e487b7100000000000000000000000000000000000000000000000000000000600052602260045260246000fd5b600060028204905060018216806116fa57607f821691505b60208210810361170d5761170c6116b3565b5b50919050565b7f4572726f72202d20617070726f76616c20746f2063757272656e74206f776e6560008201527f7200000000000000000000000000000000000000000000000000000000000000602082015250565b600061176f6021836112b0565b915061177a82611713565b604082019050919050565b6000602082019050818103600083015261179e81611762565b9050919050565b7f43757272656e742063616c6c6572206973206e6f7420746865206f776e657200600082015250565b60006117db601f836112b0565b91506117e6826117a5565b602082019050919050565b6000602082019050818103600083015261180a816117ce565b9050919050565b7f4572726f72202d206973417070726f7665644f724f776e6572206572726f722060008201527f696e207472616e7366657246726f6d2066756e6374696f6e2121210000000000602082015250565b600061186d603b836112b0565b915061187882611811565b604082019050919050565b6000602082019050818103600083015261189c81611860565b9050919050565b7f4f776e657220696e646578206973206f7574206f6620626f756e642121210000600082015250565b60006118d9601e836112b0565b91506118e4826118a3565b602082019050919050565b60006020820190508181036000830152611908816118cc565b9050919050565b7f4e487b7100000000000000000000000000000000000000000000000000000000600052603260045260246000fd5b7f476c6f62616c20696e646578206973206f7574206f6620626f756e6421212100600082015250565b6000611974601f836112b0565b915061197f8261193e565b602082019050919050565b600060208201905081810360008301526119a381611967565b9050919050565b7f6f776e657220717565727920666f72206e6f6e2d6578697374656e7420746f6b60008201527f656e000000000000000000000000000000000000000000000000000000000000602082015250565b6000611a066022836112b0565b9150611a11826119aa565b604082019050919050565b60006020820190508181036000830152611a35816119f9565b9050919050565b600081905092915050565b6000611a52826112a5565b611a5c8185611a3c565b9350611a6c8185602086016112c1565b80840191505092915050565b6000611a848284611a47565b915081905092915050565b7f4572726f72202d206b727970746f4269726420616c726561647920657869737460008201527f7300000000000000000000000000000000000000000000000000000000000000602082015250565b6000611aeb6021836112b0565b9150611af682611a8f565b604082019050919050565b60006020820190508181036000830152611b1a81611ade565b9050919050565b7f4e487b7100000000000000000000000000000000000000000000000000000000600052601160045260246000fd5b6000611b5b826113be565b9150611b66836113be565b925082821015611b7957611b78611b21565b5b828203905092915050565b7f746f6b656e20646f6573206e6f74206578697374000000000000000000000000600082015250565b6000611bba6014836112b0565b9150611bc582611b84565b602082019050919050565b60006020820190508181036000830152611be981611bad565b9050919050565b7f4572726f72202d20455243373231205472616e7366657220746f20746865207a60008201527f65726f2061646472657373000000000000000000000000000000000000000000602082015250565b6000611c4c602b836112b0565b9150611c5782611bf0565b604082019050919050565b60006020820190508181036000830152611c7b81611c3f565b9050919050565b7f547279696e6720746f207472616e73666572206120746f6b656e20746865206160008201527f64647265737320646f6573206e6f74206f776e21000000000000000000000000602082015250565b6000611cde6034836112b0565b9150611ce982611c82565b604082019050919050565b60006020820190508181036000830152611d0d81611cd1565b9050919050565b6000611d1f826113be565b9150611d2a836113be565b9250827fffffffffffffffffffffffffffffffffffffffffffffffffffffffffffffffff03821115611d5f57611d5e611b21565b5b828201905092915050565b7f4552433732313a206d696e74696e6720746f20746865207a65726f206164647260008201527f6573730000000000000000000000000000000000000000000000000000000000602082015250565b6000611dc66023836112b0565b9150611dd182611d6a565b604082019050919050565b60006020820190508181036000830152611df581611db9565b9050919050565b7f54686520746f6b656e20697320616c7265616479206d696e7465642121210000600082015250565b6000611e32601e836112b0565b9150611e3d82611dfc565b602082019050919050565b60006020820190508181036000830152611e6181611e25565b9050919050565b7f536166654d6174683a205375627472616374696f6e204f766572666c6f770000600082015250565b6000611e9e601e836112b0565b9150611ea982611e68565b602082019050919050565b60006020820190508181036000830152611ecd81611e91565b905091905056fea2646970667358221220c2259b0564a303f46dc19e66a1e04ad094206609feb24d0518bd17e962fc253d64736f6c634300080d0033",
  "immutableReferences": {},
  "source": "// SPDX-License-Identifier: MIT\r\npragma solidity ^0.8.0;\r\nimport './ERC721Connector.sol';\r\n\r\ncontract KryptoBird is ERC721Connector {\r\n\r\n    constructor () ERC721Connector('KryptoBird','KBIRDZ'){\r\n\r\n    }\r\n\r\n    mapping(string => bool) _kryptoBirdzExists;\r\n\r\n    string[] public KryptoBirdz;\r\n\r\n    function mint(string memory _kryptoBird) public {\r\n        require(!_kryptoBirdzExists[_kryptoBird],\"Error - kryptoBird already exists\");\r\n        KryptoBirdz.push(_kryptoBird);\r\n        uint _id = KryptoBirdz.length - 1;\r\n\r\n        _mint(msg.sender, _id);\r\n\r\n        _kryptoBirdzExists[_kryptoBird] = true;\r\n    }\r\n}",
  "sourcePath": "D:\\Blockchain\\nft_marketplace_1\\src\\contracts\\KryptoBirdz.sol",
  "compiler": {
    "name": "solc",
    "version": "0.8.13+commit.abaa5c0e.Emscripten.clang"
  },
  "schemaVersion": "3.4.7",
  "updatedAt": "2022-09-02T18:00:57.756Z",
  "networkType": "ethereum",
  "devdoc": {
    "kind": "dev",
    "methods": {
      "supportsInterface(bytes4)": {
        "details": "Interface identification is specified in ERC-165. This function  uses less than 30,000 gas.",
        "params": {
          "interfaceID": "The interface identifier, as specified in ERC-165"
        },
        "returns": {
          "_0": "`true` if the contract implements `interfaceID` and  `interfaceID` is not 0xffffffff, `false` otherwise"
        }
      }
    },
    "version": 1
  },
  "userdoc": {
    "kind": "user",
    "methods": {
      "supportsInterface(bytes4)": {
        "notice": "Query if a contract implements an interface"
      }
    },
    "version": 1
  }
}